:020000040000FA
:1000000000008A110A12622BE830FD000330FE0066
:10001000831203134A08FF004B088A110A12FE23B9
:100020008A110A1283120313C7007F08C600C80092
:10003000FF0000305D21E830FD000330FE00831238
:1000400003134A08FF004B088A110A124D248A1133
:100050000A1283120313C7007F08C6006430FD0034
:100060000030FE004608FF0047088A110A12FE23EE
:100070008A110A1283120313C7007F08C600C80042
:10008000FF0001305D21E830FD000330FE008312E7
:1000900003134A08FF004B088A110A124D248A11E3
:1000A0000A1283120313C7007F08C6006430FD00E4
:1000B0000030FE004608FF0047088A110A124D244E
:1000C0008A110A1283120313C7007F08C6000A3080
:1000D000FD000030FE004608FF0047088A110A12A2
:1000E000FE238A110A1283120313C7007F08C60079
:1000F000C800FF0002305D210A30FD000030FE0024
:10010000831203134A08FF004B088A110A124D2478
:100110008A110A1283120313C7007F08C600C800A1
:10012000FF0003305D2183120313C6018312031302
:100130004608A03EC70000300318013EC80047082B
:100140008312031384008313831203134818831745
:1001500083120313000883120313C900463EC7002D
:1001600005300318013EC8004708FE004808FF009C
:1001700080308A110A129C248A110A1283120313F6
:10018000C900FF0008308A110A128E228A110A1251
:100190000130FF00831203134608772114308A11BF
:1001A0000A1209258A110A1283120313C60A04309F
:1001B0004602031C96282730831203134B02031DAB
:1001C000E3280F304A020318F9280130FF000630F7
:1001D0008A110A124D228A110A1283120313C600D1
:1001E0004608031DFD2883120313CA0A0319CB0A0C
:1001F000FD2883120313CA01CB01080083120313E5
:10020000C400A03EC40000300318013EC5004408ED
:100210008312031384008313831203134518831777
:10022000831203130008080083120313C300043071
:10023000430203185C290130831203138A0029301A
:10024000831203134307031C2829831203138A0A0A
:1002500082002D293929452951290730FF00063010
:100260008A110A124D228A110A1283120313C30043
:100270005C290630FF0006308A110A124D228A11CD
:100280000A1283120313C3005C290530FF000630F5
:100290008A110A124D228A110A1283120313C30013
:1002A0005C290430FF0006308A110A124D228A119F
:1002B0000A1283120313C300080083120313C00041
:1002C0007F08C1004008A03EC00000300318013E76
:1002D000C2004008831203138400831383120313A4
:1002E0004218831741088312031380000800831209
:1002F0000313C0007F08C100043040020318C52961
:100300000130831203138A008E30831203134007D7
:10031000031C8D29831203138A0A820092299F29C4
:10032000AC29B929831203134108FE000730FF00EE
:1003300006308A110A12D2228A110A12C5298312A2
:1003400003134108FE000630FF0006308A110A122E
:10035000D2228A110A12C529831203134108FE0012
:100360000530FF0006308A110A12D2228A110A12C1
:10037000C529831203134108FE000430FF00063034
:100380008A110A12D2228A110A1208008312031358
:10039000BD007F08BE007E08BF000030FF000830AF
:1003A0008A110A129D228A110A125030FE0005306D
:1003B000FF0080308A110A129C248A110A12FF0061
:1003C00008308A110A128E228A110A12043083120E
:1003D00003133D020318292A0130831203138A00F4
:1003E000FA30831203133D07031CF9298312031308
:1003F0008A0A8200FE29092A142A1F2A0030FE00D8
:100400000730FF0006308A110A1215238A110A12DA
:10041000292A0030FE000630FF0006308A110A1239
:1004200015238A110A12292A0030FE000530FF0028
:1004300006308A110A1215238A110A12292A00305D
:10044000FE000430FF0006308A110A1215238A11BB
:100450000A12831203133E08FF003D088A110A1294
:1004600077218A110A12831203133F08FF003D0807
:100470008A110A125D218A110A12080083120313DD
:10048000BC00FE00FF0000308A110A129C248A1171
:100490000A1283120313BC00080083120313B60070
:1004A0007F08B7003608B800FE003908FF000030AA
:1004B0008A110A129C248A110A1283120313B600AD
:1004C0000030B9000130B8003708003C03196F2A2A
:1004D00083120313B80DB90D013E031C682A831261
:1004E00003133608BA00BB0138083A05B800B60055
:1004F00039083B05B9003708003C0319892A031065
:1005000083120313B91B0314B90CB80C013E031C6E
:100510007F2A831203133808B700080083120313DD
:10052000B5007F08FD003508FE00FF0000308A118D
:100530000A1290248A110A12080083120313B100D0
:10054000AF007F08B000B20180303107B100AF00CA
:10055000B301B30D0030B3073308B200B401300863
:10056000031DBF2A0030FD003108FE003208FF00E5
:1005700034088A110A1290248A110A12D12A83128D
:1005800003133008013A031DD12AFF30FD00310862
:10059000FE003208FF0034088A110A1290248A11E2
:1005A0000A12080083120313AB00A8007F08A900F9
:1005B0007E08AA00AD012B08FE002C08FF000030C9
:1005C0008A110A129C248A110A1283120313A800AA
:1005D0000130AE002908003C0319F42A83120313EA
:1005E000AE0D013E031CEE2A83120313AE09A805CB
:1005F0002A08AE002908003C0319042B83120313B8
:10060000AE0D013E031CFE2A831203132E0828049C
:10061000A900FD002B08FE002C08FF002D088A1100
:100620000A1290248A110A12080083120313A300ED
:10063000A0007F08A1007E08A200A401803023074B
:10064000A300A000A501A50D0030A507A601230861
:10065000FE002508A400FF0000308A110A129C2425
:100660008A110A1283120313A0000130A700210887
:10067000003C0319412B83120313A70D013E031CF9
:100680003B2B83120313A709A0052208A70021080A
:10069000003C0319512B83120313A70D013E031CC9
:1006A0004B2B8312031327082004A100FD0023080D
:1006B000FE002408FF0026088A110A1290248A11DD
:1006C0000A1208003830FE000530FF0080308A1121
:1006D0000A12AF248A110A1283120313CD007F0875
:1006E000CC003A30CE000530CF00831203134C0803
:1006F000D0004D08D100FF30CC07031CCD035008BB
:1007000051040319FA2B04304E07D000D101D10D4A
:100710004F08D1075008FE005108FF0080308A11B1
:100720000A12AF248A110A1283120313D3007F081E
:10073000D2004E08FE004F08FF0080308A110A12D6
:10074000AF248A110A1283120313D500D1007F0847
:10075000D400D00002304E07D000D101D10D4F0897
:10076000D1075008FE005108FF0080308A110A129C
:10077000AF248A110A1283120313D100D7007F0815
:10078000D000D600831203135208D6005308D700B6
:10079000FF30D207031CD303560857040319F32B69
:1007A0005408FE005508FF0080308A110A129C246C
:1007B0008A110A1283120313D600500883120313FE
:1007C000840083138312031351188317560883126E
:1007D0000313800083120313D40A0319D50AD00A25
:1007E0000319D10AC22B063083120313CE07031854
:1007F000CF0A752B8A110A12D02C0800831203131A
:10080000D9007F08D8007E08DB007D08DA00DC0113
:10081000DD010130DE00DF015A085B04031D142CEA
:10082000FF30FF00FF304C2C831203135A085B0883
:10083000E000E01B222C0310DA0DDB0D0310DE0DAF
:10084000DF0D142C831203135E085F040319472C79
:100850005B085902031D2E2C5A085802031C3E2C1B
:10086000831203135E08DC075F0803185F0FDD07C0
:100870005A08D8025B08031C5B0FD90203108312CD
:100880000313DB0CDA0C0310DF0CDE0C222C8312BA
:1008900003135C08FF005D08080083120313E900DE
:1008A0007F08E8007E08EB007D08EA006B04031D6A
:1008B0005D2CFF30FF00FF308F2C013083120313BB
:1008C000EC00831203136A086B08ED00ED1B6D2C1E
:1008D0000310EA0DEB0DEC0A612C003083120313B8
:1008E0006C0403198A2C6B086902031D792C6A08B1
:1008F0006802031C832C831203136A08E8026B0846
:10090000031C6B0FE902031083120313EB0CEA0CB8
:10091000EC036D2C831203136808FF0069080800BC
:10092000003A0319942C08007E08840083137F1872
:1009300083177D0880000800003A0319A32C803A31
:100940000319AA2C00347E08840083137F188317B0
:10095000000808007F088A007E0882000800003A2C
:100960000319B72C803A0319C12CFF0100347E080B
:10097000840083137F1883170008FF00840A00088F
:1009800008008A110A12AA24FD00FE0FFF03FF0AC5
:100990008A110A12AA24FC007D08FF007C080800C6
:1009A0000130FE000030FF0006308A110A121523C4
:1009B0008A110A120A30FE000030FF0000308A114E
:1009C0000A12C6218A110A120A30FE000030FF0006
:1009D00001308A110A12C6218A110A120A30FE0059
:1009E0000030FF0002308A110A12C6218A110A1251
:1009F0000A30FE000030FF0003308A110A12C621BF
:100A00008A110A128A110A1204208A110A12022D6E
:100A1000080083120313E100E201E30183120313D0
:100A20006108E400E50100306302031D192D64082C
:100A300062020318372D783083120313E400E501B6
:100A4000FF30831203136407E600FF30E7006508F8
:100A50000318650FE7076608E4006708E500660805
:100A60006704031D202DE20A0319E30A0E2D080076
:100A70000234003451340534A034003404340034DA
:100A8000553405346E340034013400343F340634B8
:100A90005B344F3466346D347D3407347F346F34C7
:0C0AA00000340A34003400340034003408
:02400E00323F3F
:00000001FF
